{
  "abi": [
    {
      "type": "constructor",
      "inputs": [],
      "stateMutability": "nonpayable"
    },
    {
      "type": "function",
      "name": "RANDOMNESS_SENDER",
      "inputs": [],
      "outputs": [
        {
          "name": "",
          "type": "address",
          "internalType": "address"
        }
      ],
      "stateMutability": "view"
    },
    {
      "type": "function",
      "name": "randomness",
      "inputs": [],
      "outputs": [
        {
          "name": "",
          "type": "bytes32",
          "internalType": "bytes32"
        }
      ],
      "stateMutability": "view"
    },
    {
      "type": "function",
      "name": "randomnessSender",
      "inputs": [],
      "outputs": [
        {
          "name": "",
          "type": "address",
          "internalType": "contract IRandomnessSender"
        }
      ],
      "stateMutability": "view"
    },
    {
      "type": "function",
      "name": "receiveRandomness",
      "inputs": [
        {
          "name": "requestID",
          "type": "uint256",
          "internalType": "uint256"
        },
        {
          "name": "randomness",
          "type": "bytes32",
          "internalType": "bytes32"
        }
      ],
      "outputs": [],
      "stateMutability": "nonpayable"
    },
    {
      "type": "function",
      "name": "requestId",
      "inputs": [],
      "outputs": [
        {
          "name": "",
          "type": "uint256",
          "internalType": "uint256"
        }
      ],
      "stateMutability": "view"
    },
    {
      "type": "function",
      "name": "rollDice",
      "inputs": [],
      "outputs": [],
      "stateMutability": "nonpayable"
    }
  ],
  "bytecode": {
    "object": "0x60a0604052348015600e575f5ffd5b50739c789bc7f2b5c6619be1572a39f2c3d6f33001dc608081905261034a61004b5f395f818160b801528181610132015261024c015261034a5ff3fe608060405234801561000f575f5ffd5b506004361061006e575f3560e01c8063837e7cc61161004d578063837e7cc6146100ab578063df3fafe8146100b3578063ffd8c13e146100ff575f5ffd5b80626d6cae14610072578063360131891461008e578063431ac65714610096575b5f5ffd5b61007b60015481565b6040519081526020015b60405180910390f35b61007b5f5481565b6100a96100a43660046102dd565b61011a565b005b6100a96101cc565b6100da7f000000000000000000000000000000000000000000000000000000000000000081565b60405173ffffffffffffffffffffffffffffffffffffffff9091168152602001610085565b6100da739c789bc7f2b5c6619be1572a39f2c3d6f33001dc81565b3373ffffffffffffffffffffffffffffffffffffffff7f000000000000000000000000000000000000000000000000000000000000000016146101be576040517f08c379a000000000000000000000000000000000000000000000000000000000815260206004820152601e60248201527f4f6e6c792072616e646f6d6e65737353656e6465722063616e2063616c6c000060448201526064015b60405180910390fd5b6101c882826101d9565b5050565b6101d4610249565b600155565b8160015414610244576040517f08c379a000000000000000000000000000000000000000000000000000000000815260206004820152601360248201527f52657175657374204944206d69736d617463680000000000000000000000000060448201526064016101b5565b5f5550565b5f7f000000000000000000000000000000000000000000000000000000000000000073ffffffffffffffffffffffffffffffffffffffff1663f8413b076040518163ffffffff1660e01b81526004016020604051808303815f875af11580156102b4573d5f5f3e3d5ffd5b505050506040513d601f19601f820116820180604052508101906102d891906102fd565b905090565b5f5f604083850312156102ee575f5ffd5b50508035926020909101359150565b5f6020828403121561030d575f5ffd5b505191905056fea2646970667358221220853e982813ab529d984d696d278473ec80ad39a3a33cf0cb4b94bab3f98c0aaf64736f6c634300081c0033",
    "linkReferences": {}
  },
  "methodIdentifiers": {
    "RANDOMNESS_SENDER()": "ffd8c13e",
    "randomness()": "36013189",
    "randomnessSender()": "df3fafe8",
    "receiveRandomness(uint256,bytes32)": "431ac657",
    "requestId()": "006d6cae",
    "rollDice()": "837e7cc6"
  },
  "id": 79
}